:020000040800F2
:10000000D807002029020008310200083302000846
:10001000350200083702000839020008000000001D
:100020000000000000000000000000003B0200088B
:100030003D020008000000003F020008ED08000833
:100040003F0A00082D0700086D0900088D07000809
:10005000D904000879070008FD030008110400080E
:100060001B040008250400082F04000849030008A9
:10007000530300085D0300086703000871030008CC
:100080007B03000885030008DB0200080303000867
:10009000E5020008EF020008F90200083904000830
:1000A00077090008950900088B09000881090008F4
:1000B0009F090008A9090008B3090008AB06000859
:1000C000A1060008BF060008B5060008A107000841
:1000D000AB070008170A0008210A00082B0A0008CD
:1000E0000704000883070008FB060008DB09000876
:1000F000F9090008EF090008E50900088F03000866
:10010000ED04000897070008BD090008B5070008BE
:10011000030A00080D0A0008C7090008D1090008F1
:1001200099030008A3030008AD030008B703000803
:10013000C1030008E9030008F30300082B030008CB
:100140000D0300081703000821030008F10600084A
:10015000CB030008D5030008DF030008350A0008B8
:10016000D3060008C90600080F07000805070008A5
:1001700023070008190700083F030008350300089B
:1001800097060008E304000800F002F800F03CF8CD
:100190000AA090E8000C82448344AAF10107DA45E2
:1001A00001D100F031F8AFF2090EBAE80F0013F0F8
:1001B000010F18BFFB1A43F001031847900C000011
:1001C000B00C0000103A24BF78C878C1FAD85207A2
:1001D00024BF30C830C144BF04680C6070470000C1
:1001E0000023002400250026103A28BF78C1FBD840
:1001F000520728BF30C148BF0B6070471FB500F0E1
:100200001FFE1FBD10B510BD00F031F81146FFF7FD
:10021000F5FF00F0B1FD00F04FF803B4FFF7F2FF77
:1002200003BC00F053F80000094880470948004724
:10023000FEE7FEE7FEE7FEE7FEE7FEE7FEE7FEE796
:10024000FEE7FEE704480549054A064B70470000F3
:100250000509000889010008D8010020D8070020FE
:10026000D8030020D80300207047704770477546B8
:1002700000F028F8AE4605006946534620F0070016
:10028000854618B020B5FFF7DDFFBDE820404FF0F0
:1002900000064FF000074FF000084FF0000B21F070
:1002A0000701AC46ACE8C009ACE8C009ACE8C0093D
:1002B000ACE8C0098D4670470446AFF30080204685
:1002C000FFF7ABFF00487047780100200149182074
:1002D000ABBEFEE726000200704710B5122000F00A
:1002E000C9F910BD10B5142000F0C4F910BD10B547
:1002F000152000F0BFF910BD10B5162000F0BAF9B6
:1003000010BD10B5132000F0B5F910BD10B5402098
:1003100000F0B0F910BD10B5412000F0ABF910BDF0
:1003200010B5422000F0A6F910BD10B53F2000F036
:10033000A1F910BD10B54F2000F09CF910BD10B50B
:100340004E2000F097F910BD10B50B2000F092F987
:1003500010BD10B50C2000F08DF910BD10B50D20AA
:1003600000F088F910BD10B50E2000F083F910BD23
:1003700010B50F2000F07EF910BD10B5102000F070
:1003800079F910BD10B5112000F074F910BD10B549
:100390002F2000F06FF910BD10B5382000F06AF979
:1003A00010BD10B5392000F065F910BD10B53A2028
:1003B00000F060F910BD10B53B2000F05BF910BDF6
:1003C00010B53C2000F056F910BD10B5442000F0E7
:1003D00051F910BD10B5452000F04CF910BD10B515
:1003E000462000F047F910BD10B53D2000F042F95D
:1003F00010BD10B53E2000F03DF910BD10B506202F
:1004000000F038F910BD10B5282000F033F910BD08
:1004100010B5072000F02EF910BD10B5082000F02F
:1004200029F910BD10B5092000F024F910BD10B550
:100430000A2000F01FF910BD10B5172000F01AF9BE
:1004400010BD0000002123498279002A3AD00A46D3
:10045000126803689A430B461A600A1D1268036803
:100460009A430B1D1A60027911440A6803681A4303
:100470000A60184A0832126803689A43154B083319
:100480001A601A1D126803689A43124B0C331A60E3
:100490004279102A0ED11A1F126803681A430D4BB5
:1004A00008331A601A1D126803681A43094B0C338B
:1004B0001A600DE00749427911440A6803681A433B
:1004C0000A6005E0027911440A6803689A430A60E9
:1004D00070470000003C014010B5042000F0CAF84D
:1004E00010BD10B5512000F0C5F810BD10B530207A
:1004F00000F0C0F810BDF0B50A460021002300242A
:1005000000BF3DE0012505FA01F3156805EA030483
:100510009C4234D105684F000326BE40B5430560B8
:1005200015794E00B5400668354305601579012DF3
:1005300002D01579022D16D185684F000326BE40E2
:10054000B543856055794E00B54086683543856072
:10055000456801268E40B5434560456896798E40D2
:10056000B6B235434560C5684F000326BE40B5436B
:10057000C560D5794E00B540C6683543C560491C95
:100580001029BFD3F0BD0246002013690B400BB108
:10059000012000E0002070470AB1018300E04183A0
:1005A000704770B504460D4629462046FFF7EBFF1D
:1005B00070BD2DE9FF4706460D461446304600F053
:1005C0009BFA81460121484600F0B6F8204600F02B
:1005D00091FB8DF80C00C4F340108DF80E000295CD
:1005E000204600F07BFB8DF80F0002208DF80D00F7
:1005F00002A93046FFF77FFF04F4807028B904F0A9
:10060000400010B904F0800020B30121880300F0FD
:10061000A3F8284600F0C0FAC7B2304600F010FB3D
:1006200000F0FF083946404600F0CAF84FF4A060D9
:1006300000F054F8009501208DF8060000208DF898
:100640000400204600F046FA8DF805006846FFF7E2
:10065000F9FE00BFBDE8FF8770B505460E4614469B
:100660000CB1012000E00020024631462846FFF789
:1006700093FF70BD70B504465B2C06D2034850F85A
:1006800024500348854200D0A84770BD0C000020CC
:1006900095060008704710B55020FFF7EBFF10BD1E
:1006A00010B52020FFF7E6FF10BD10B51F20FFF7A3
:1006B000E1FF10BD10B52220FFF7DCFF10BD10B523
:1006C0002120FFF7D7FF10BD10B54920FFF7D2FF5B
:1006D00010BD10B54820FFF7CDFF10BD0249014302
:1006E000024A1160704700000000FA050CED00E0BE
:1006F00010B54320FFF7BEFF10BD10B52A20FFF74D
:10070000B9FF10BD10B54B20FFF7B4FF10BD10B5F9
:100710004A20FFF7AFFF10BD10B54D20FFF7AAFF2D
:1007200010BD10B54C20FFF7A5FF10BD10B501207E
:10073000FFF7A0FF10BD000029B1064A126802436E
:10074000044B1A6004E0034A12688243014B1A60AA
:10075000704700003038024029B1064A126802434F
:10076000044B1A6004E0034A12688243014B1A608A
:10077000704700004438024010B50520FFF77AFFAB
:1007800010BD10B52920FFF775FF10BD10B503206F
:10079000FFF770FF10BD10B53120FFF76BFF10BDE4
:1007A00010B52320FFF766FF10BD10B52420FFF71A
:1007B00061FF10BD10B53320FFF75CFF10BD0000D6
:1007C00030B500228B071C0F0F2303FA04F20B4BEA
:1007D0008C1053F824309343084C8D1044F8253086
:1007E00023468C1053F824308C07240F00FA04F4AD
:1007F0002343024C8D1044F8253030BD08380140A9
:100800000CB50020019000903448006840F480301E
:100810003249086000BF3148006800F400300090A1
:100820000198401C0190009818B90198B0F5A04FAC
:10083000F1D12A48006800F4003010B10120009086
:1008400001E0002000900098012846D12348403064
:10085000006840F08050214940310860204800681D
:1008600040F440401E4908601C48083000681B499D
:10087000083108600846006840F4004008600846F7
:10088000006840F4A05008601648091F0860081F5F
:10089000006840F08070091F086000BF0F480068C2
:1008A00000F000700028F9D040F205700E49086091
:1008B0000A480830006820F0030008490831086041
:1008C0000846006840F00200086000BF0348083096
:1008D000006800F00C000828F8D10CBD0038024078
:1008E0000070004008544007003C02400448006883
:1008F00020B103480068401E0149086070470000AD
:100900000400002010B51548006840F47000134939
:1009100008601348006840F0010011490860002099
:100920000F49083108600E4800680E4908400C491C
:1009300008600D48091D0860081F006820F4802029
:10094000091F0860002006490C310860FFF758FFB6
:100950004FF0006001498039086010BD88ED00E06B
:1009600000380240FFFFF6FE1030002410B50220D0
:10097000FFF780FE10BD10B51820FFF77BFE10BDFD
:1009800010B51B20FFF776FE10BD10B51A20FFF73B
:1009900071FE10BD10B51920FFF76CFE10BD10B52B
:1009A0001C20FFF767FE10BD10B51D20FFF762FE8B
:1009B00010BD10B51E20FFF75DFE10BD10B5322032
:1009C000FFF758FE10BD10B53620FFF753FE10BDDF
:1009D00010B53720FFF74EFE10BD10B52B20FFF7E6
:1009E00049FE10BD10B52E20FFF744FE10BD10B516
:1009F0002D20FFF73FFE10BD10B52C20FFF73AFE6B
:100A000010BD10B53420FFF735FE10BD10B53520F0
:100A1000FFF730FE10BD10B52520FFF72BFE10BDEF
:100A200010B52620FFF726FE10BD10B52720FFF7D2
:100A300021FE10BD10B54720FFF71CFE10BD10B5FC
:100A40000020FFF717FE10BD10B5102251010E480F
:100A5000FFF7AFFD102211010C48FFF7AAFD10228D
:100A600040210A48FFF7A5FD102240210848FFF762
:100A7000A0FD022240210748FFF79BFD0222202112
:100A80000348FFF796FD10BD001802400000024029
:100A9000001002400004024010B500224FF4007123
:100AA0000948FFF7D9FD00224FF480710748FFF78E
:100AB000D3FD002240210548FFF7CEFD0022402152
:100AC0000348FFF7C9FD10BD0018024000000240B6
:100AD000001002400146002001F480720AB110208B
:100AE00008E001F040020AB1082003E001F08002B2
:100AF00002B10C2070470000014600201B4A9142C1
:100B000001D1012030E01A4A914201D102202BE0AC
:100B1000184A914201D1042026E0174A914201D19E
:100B2000082021E0154A914201D110201CE0144A0E
:100B3000914201D1202017E0124A914201D1402078
:100B400012E0114A914201D180200DE00F4A9142FA
:100B500001D1881508E00E4A914201D1481503E001
:100B60000C4A914200D10815704700000000024075
:100B70000004024000080240000C02400010024045
:100B80000014024000180240001C024000200240F5
:100B9000002402400028024001466F20B1F5807F0A
:100BA0003BD012DC102930D008DC012925D00229E5
:100BB00025D0042925D008293FD124E0202926D09A
:100BC000402926D0802938D125E0B1F5805F2CD08E
:100BD00009DCB1F5007F22D0B1F5806F21D0B1F5ED
:100BE000006F2AD11FE0B1F5005F20D0B1F5804F32
:100BF0001FD0B1F5004F20D11DE000201EE00120E4
:100C00001CE002201AE0032018E0042016E0052072
:100C100014E0062012E0072010E008200EE0092072
:100C20000CE00A200AE00B2008E00C2006E00D2072
:100C300004E00E2002E00F2000E000BF00BF70477C
:100C4000014600201A4A914200D130E0194A9142EF
:100C500001D101202BE0184A914201D1022026E067
:100C6000164A914201D1032021E0154A914201D157
:100C700004201CE0134A914201D1052017E0124ADA
:100C8000914201D1062012E0104A914201D1072081
:100C90000DE00F4A914201D1082008E00D4A91422F
:100CA00001D1092003E00C4A914200D10A2070478B
:100CB000000002400004024000080240000C024014
:100CC000001002400014024000180240001C0240C4
:100CD000002002400024024000280240014600207B
:100CE00001F002020AB1012003E001F0040202B1A6
:100CF000022070470146022001F0010272B901F0A2
:100D000002025AB901F0040242B901F480722AB910
:100D100001F0400212B901F080020AB100200BE09C
:100D200001F008020AB1032006E001F0200212B926
:100D300001F0100202B101207047000010B500223E
:100D40004FF400710948FFF787FC0122110208489F
:100D5000FFF782FC002240210548FFF77DFC0122BD
:100D600040210448FFF778FC10BD00000018024045
:100D70000000024000100240FFF766FE002400253C
:100D80001CE040210E48FFF70CFC044620210D48D2
:100D9000FFF707FC05461CB915B9FFF7CFFF0DE0BB
:100DA0001CB915B100F02EF808E01CB115B900F01F
:100DB0000BF803E014B10DB1FFF76EFEE1E70000A0
:100DC000000402400010024010B500224FF40071F0
:100DD0000948FFF741FC00224FF480710748FFF7F4
:100DE0003BFC002240210548FFF736FC0122402150
:100DF0000348FFF731FC10BD00180240000002401C
:100E00000010024010B500224FF400710948FFF7AE
:100E100023FC012211020848FFF71EFC002240219A
:100E20000548FFF719FC002240210448FFF714FC95
:100E300010BD0000001802400000024000100240F7
:100E40004FF04070E1EE100A704700006C0E000891
:100E5000000000200C000000C4010008780E00080B
:100E60000C000020CC070000E0010008000000009A
:080E700000000000000000007A
:040000050800018965
:00000001FF
